S01500004B69746368656E5F74696D65722E73726563C9
S11300000C943E000C9450000C9450000C9450003E
S11300100C9450000C9450000C9450000C9450001C
S11300200C9450000C9450000C9450000C949100CB
S11300300C9452000C9450000C9450000C945000FA
S11300400C9450000C9450000C9450000C945000EC
S11300500C9450000C9450000C9450000C945000DC
S11300600C9450000C94500078017B017E018101B6
S1130070840187018A018D019001930111241FBE1F
S1130080CFEFD8E0DEBFCDBF21E0A0E0B1E001C0FA
S11300901D92A230B207E1F70E94D5010C945904D5
S11300A00C9400001F920F920FB60F9211248F939D
S11300B085B18F3F11F415B802C08FEF85B9109246
S11300C08500109284008F910F900FBE0F901F90A7
S11300D01895E0910001F0910101808181111EC009
S11300E089E08083E0910001F09101018181811117
S11300F012C085E08183E0910001F09101018281C9
S1130100811106C083818150838389E082830895AD
S11301108150828308958150818308958150808322
S113012008951F920F920FB60F9211242F933F93AD
S11301304F935F936F937F938F939F93AF93BF93EB
S1130140EF93FF930E946900FF91EF91BF91AF91EC
S11301509F918F917F916F915F914F913F912F91DB
S11301600F900FBE0F901F9018950F931F93CF936E
S1130170DF93EC01909301018093000110928500BC
S11301801092840086B3826086BB8FB780688FBF6D
S113019003C0CE010E9499014C99FBCF4C9B3DC0FA
S11301A0F894009184001091850003C0CE010E9450
S11301B099014C99FBCF03C0CE010E9499014C993F
S11301C002C04A9BF9CF4A9B0CC0188219821A823A
S11301D01B8203C0CE010E9499014A99FBCF81E0A2
S11301E02EC0109385000093840086B3826086BB82
S11301F08FB780688FBF0FC0CE010E94990188819C
S1130200811109C08981811106C08A81811103C0CD
S11302108B81882311F04C99EFCF888181110BC019
S11302208981811108C08A81811105C08B81811166
S113023002C0F89404C0CE010E949901AFCF15B852
S1130240811127C084E080936F0088E09DE3909340
S11302508B0080938A00109285001092840086B3EC
S1130260826086BB8FB780688FBF02C00E944E0138
S11302704C99FCCF4C9B02C0F89406C00E944E01DE
S1130280F9CFCE010E9499014C99FBCF82E0809373
S11302906F00DF91CF911F910F9108958EE088B97F
S11302A08FE99FE00197F1F700C000008DE088B965
S11302B08FE99FE00197F1F700C000008BE088B957
S11302C08FE99FE00197F1F700C0000087E088B94B
S11302D08FE99FE00197F1F700C00000089590E0D6
S11302E08A30910518F5FC01EC5CFF4F0C94530423
S11302F080EC85B9089589EF85B9089584EA85B9B4
S1130300089580EB85B9089589E985B9089582E94E
S113031085B9089582E885B9089588ED85B9089569
S113032080E885B9089580E985B9089586E085B99E
S113033008951F93CF93DF93EC011FEF15B98881C4
S11303400E946F018EE088B98FE99FE00197F1F771
S113035000C0000015B989810E946F018DE088B941
S11303608FE99FE00197F1F700C0000015B98A8179
S11303700E946F0185B1805885B98BE088B98FE9F7
S11303809FE00197F1F700C0000015B98B810E942E
S11303906F0187E088B98FE99FE00197F1F700C00A
S11303A00000DF91CF911F910895CF93DF9300D088
S11303B000D0CDB7DEB719821A821B821C828FEF60
S11303C084B98FE287B91AB8109280008CE08093C8
S11303D0810082E080936F0081E19AE79093890025
S11303E08093880088E09DE390938B0080938A003B
S11303F0F8944A9B0FC001E810E0F801908188E06E
S113040089278083CE0101960E943402F8018081FD
S1130410886080834B9B04C0CE0101960E94A00299
S11304204C9B04C0CE0101960E94B500CE010196FA
S11304300E949901DECFFC019281993019F09F5FEF
S11304409283089512828381893019F08F5F8383A8
S1130450089513820895FC019181953019F09F5FEE
S11304609183089511820895CF93DF93EC010E9444
S11304701B0210928500109284005DC0CE010E9480
S11304809901609184007091850080E090E00E9461
S11304902F0320E030E040E853E40E94C20320E050
S11304A034E244EF5AE40E94BD0220E030E040E828
S11304B05FE30E94BD0388237CF1109285001092B3
S11304C0840026C0609184007091850080E090E0F3
S11304D00E942F0320E030E040E853E40E94C2036E
S11304E020E034E244EF5AE40E94BD022DEC3CECDF
S11304F04CEC5DE30E94BD0388233CF0CE010E94D6
S11305001B021092850010928400CE010E94990172
S11305104A9B02C04B9BD6CF4B9B0DC018821982BD
S11305201A821B8203C0CE010E9499014B99FBCF12
S11305304A99F9CF02C04A99A1CFDF91CF9108958A
S1130540CF93DF93EC010E942B0212C0CE010E94D4
S113055099014A9B0DC0188219821A821B8203C01A
S1130560CE010E9499014B99FBCF4A99F9CF02C061
S11305704B99ECCFDF91CF9108950E94D1020C9456
S113058083030E947C0358F00E94750340F029F411
S11305905F3F29F00C946C0351110C94B7030C9435
S11305A072030E94940368F39923B1F3552391F3E2
S11305B0951B550BBB27AA2762177307840738F0CE
S11305C09F5F5F4F220F331F441FAA1FA9F335D02B
S11305D00E2E3AF0E0E832D091505040E695001CDF
S11305E0CAF72BD0FE2F29D0660F771F881FBB1F99
S11305F0261737074807AB07B0E809F0BB0B802D77
S1130600BF01FF2793585F4F3AF09E3F510578F0A2
S11306100C946C030C94B7035F3FE4F3983ED4F35B
S1130620869577956795B795F7959F5FC9F7880F76
S1130630911D9695879597F90895E1E0660F771FC8
S1130640881FBB1F621773078407BA0720F0621B59
S1130650730B840BBA0BEE1F88F7E0950895E894AA
S113066009C097FB3EF490958095709561957F4FF6
S11306708F4F9F4F9923A9F0F92F96E9BB279395A4
S1130680F695879577956795B795F111F8CFFAF4B4
S1130690BB0F11F460FF1BC06F5F7F4F8F4F9F4FE5
S11306A016C0882311F096E911C0772321F09EE843
S11306B0872F762F05C0662371F096E8862F70E0A9
S11306C060E02AF09A95660F771F881FDAF7880F83
S11306D09695879597F9089597F99F6780E870E054
S11306E060E008959FEF80EC089500240A941616A4
S11306F0170618060906089500240A94121613060C
S1130700140605060895092E0394000C11F4882399
S113071052F0BB0F40F4BF2B11F460FF04C06F5FB5
S11307207F4F8F4F9F4F089557FD9058440F551F8B
S113073059F05F3F71F04795880F97FB991F61F05F
S11307409F3F79F087950895121613061406551FD6
S1130750F2CF4695F1DF08C0161617061806991F42
S1130760F1CF86957105610508940895E894BB2737
S113077066277727CB0197F908950E942F0408F480
S11307808FEF08950E94D5030C9483030E94750390
S113079038F00E947C0320F0952311F00C946C0334
S11307A00C94720311240C94B7030E94940370F305
S11307B0959FC1F3950F50E0551F629FF001729F02
S11307C0BB27F00DB11D639FAA27F00DB11DAA1F11
S11307D0649F6627B00DA11D661F829F2227B00D5E
S11307E0A11D621F739FB00DA11D621F839FA00DE9
S11307F0611D221F749F3327A00D611D231F849F39
S1130800600D211D822F762F6A2F11249F5750408F
S11308109AF0F1F088234AF0EE0FFF1FBB1F661F0A
S1130820771F881F91505040A9F79E3F510580F0D3
S11308300C946C030C94B7035F3FE4F3983ED4F339
S1130840869577956795B795F795E7959F5FC1F777
S1130850FE2B880F911D9695879597F90895990F0A
S11308600008550FAA0BE0E8FEEF16161706E80776
S1130870F907C0F012161306E407F50798F0621B97
S1130880730B840B950B39F40A2661F0232B242B6C
S1130890252B21F408950A2609F4A140A6958FEF8B
S11308A0811D811D0895EE0FFF1F0590F491E02D29
S10908B00994F894FFCF47
S9030000FC
