S01500004B69746368656E5F74696D65722E73726563C9
S11300000C943E000C9450000C9450000C9450003E
S11300100C9450000C9450000C9450000C9450001C
S11300200C9450000C9450000C9450000C949400C8
S11300300C9452000C9450000C9450000C945000FA
S11300400C9450000C9450000C9450000C945000EC
S11300500C9450000C9450000C9450000C945000DC
S11300600C9450000C9450008B018E01910194016A
S113007097019A019D01A001A301A60111241FBEAD
S1130080CFEFD8E0DEBFCDBF21E0A0E0B1E001C0FA
S11300901D92A230B207E1F70E94E8010C946D04AE
S11300A00C9400001F920F920FB60F9211248F939D
S11300B085B18F3F11F415B802C08FEF85B98BB1AC
S11300C080588BB910928500109284008F910F9004
S11300D00FBE0F901F901895E0910001F09101015F
S11300E0808181111EC089E08083E0910001F0913C
S11300F001018181811112C085E08183E0910001B9
S1130100F09101018281811106C083818150838332
S113011089E0828308958150828308958150818388
S113012008958150808308951F920F920FB60F9205
S113013011242F933F934F935F936F937F938F93E8
S11301409F93AF93BF93EF93FF930E946C00FF9133
S1130150EF91BF91AF919F918F917F916F915F913B
S11301604F913F912F910F900FBE0F901F901895B4
S11301700F931F93CF93DF93EC019093010180932E
S11301800001109285001092840086B3826086BBC1
S11301908FB780688FBF11C0888181110BC089819E
S11301A0811108C08A81811105C08B81811102C02F
S11301B0F89405C0CE010E94AC014C99EDCF888122
S11301C081110BC08981811108C08A81811105C008
S11301D08B81811102C0F89443C04C9B3DC0F894BC
S11301E0009184001091850003C0CE010E94AC01EF
S11301F04C99FBCF03C0CE010E94AC014C9902C0C4
S11302004A9BF9CF4A9B0CC0188219821A821B821E
S113021003C0CE010E94AC014A99FBCF81E020C00B
S1130220109385000093840086B3826086BB8FB7E9
S113023080688FBF0FC0CE010E94AC0188818111FC
S113024009C08981811106C08A81811103C08B8113
S1130250882311F04C99EFCFCE010E94AC01AFCFAF
S113026015B8811129C084E080936F0088E09DE374
S113027090938B0080938A001092850010928400E2
S113028086B3826086BB8FB780688FBF02C00E942E
S113029061014C99FCCF4C9B04C0F8948BB11BB802
S11302A006C00E946101F7CFCE010E94AC014C99B7
S11302B0FBCF82E080936F00DF91CF911F910F916C
S11302C008958EE088B98FEC97E00197F1F700C0AC
S11302D000008DE088B98FE99FE00197F1F700C035
S11302E000008BE088B98FEC97E00197F1F700C02C
S11302F0000087E088B98FEC97E00197F1F700C020
S11303000000089590E08A30910518F5FC01EC5C3A
S1130310FF4F0C94670480EC85B9089589EF85B983
S1130320089584EA85B9089580EB85B9089589E92B
S113033085B9089582E985B9089582E885B9089553
S113034088ED85B9089580E885B9089580E985B96F
S1130350089586E085B908951F93CF93DF93EC0148
S11303601FEF15B988810E9482018EE088B98FEC55
S113037097E00197F1F700C0000015B989810E9448
S113038082018DE088B98FEC97E00197F1F700C006
S1130390000015B98A810E94820185B1805885B90F
S11303A08BE088B98FEC97E00197F1F700C000006B
S11303B015B98B810E94820187E088B98FEC97E0A0
S11303C00197F1F700C00000DF91CF911F910895CC
S11303D0CF93DF9300D000D0CDB7DEB719821A8255
S11303E01B821C828FEF84B98FE287B980E88AB9B7
S11303F0109280008CE08093810082E080936F00F3
S113040081E19AE7909389008093880088E09DE3D6
S113041090938B0080938A00F8944A9B0FC001E864
S113042010E0F801908188E089278083CE0101964D
S11304300E944802F8018081886080834B9B04C03D
S1130440CE0101960E94B4024C9B04C0CE010196D9
S11304500E94B800CE0101960E94AC01DECFFC01DF
S11304609281993019F09F5F92830895128283815B
S1130470893019F08F5F8383089513820895FC01F6
S11304809181953019F09F5F9183089511820895A9
S1130490CF93DF93EC010E942F02109285001092FB
S11304A084005DC0CE010E94AC0160918400709113
S11304B0850080E090E00E94430320E030E040E8C3
S11304C053E40E94D60320E034E244EF5AE40E944D
S11304D0D10220E030E040E85FE30E94D1038823AA
S11304E07CF1109285001092840026C060918400F3
S11304F07091850080E090E00E94430320E030E0AA
S113050040E853E40E94D60320E034E244EF5AE486
S11305100E94D1022DEC3CEC4CEC5DE30E94D10333
S113052088233CF0CE010E942F0210928500109285
S11305308400CE010E94AC014A9B02C04B9BD6CFE3
S11305404B9B0DC0188219821A821B8203C0CE01F4
S11305500E94AC014B99FBCF4A99F9CF02C04A994A
S1130560A1CFDF91CF910895CF93DF93EC010E9447
S11305703F0212C0CE010E94AC014A9B0DC01882FA
S113058019821A821B8203C0CE010E94AC014B99CE
S1130590FBCF4A99F9CF02C04B99ECCFDF91CF91B1
S11305A008950E94E5020C9497030E94900358F06A
S11305B00E94890340F029F45F3F29F00C948003E2
S11305C051110C94CB030C9486030E94A80368F386
S11305D09923B1F3552391F3951B550BBB27AA27F8
S11305E062177307840738F09F5F5F4F220F331F32
S11305F0441FAA1FA9F335D00E2E3AF0E0E832D0FA
S113060091505040E695001CCAF72BD0FE2F29D0FC
S1130610660F771F881FBB1F261737074807AB07CE
S1130620B0E809F0BB0B802DBF01FF2793585F4F43
S11306303AF09E3F510578F00C9480030C94CB0360
S11306405F3FE4F3983ED4F3869577956795B79525
S1130650F7959F5FC9F7880F911D9695879597F930
S11306600895E1E0660F771F881FBB1F62177307A9
S11306708407BA0720F0621B730B840BBA0BEE1FBE
S113068088F7E0950895E89409C097FB3EF49095A7
S11306908095709561957F4F8F4F9F4F9923A9F057
S11306A0F92F96E9BB279395F695879577956795E6
S11306B0B795F111F8CFFAF4BB0F11F460FF1BC02A
S11306C06F5F7F4F8F4F9F4F16C0882311F096E9BD
S11306D011C0772321F09EE8872F762F05C066236B
S11306E071F096E8862F70E060E02AF09A95660F24
S11306F0771F881FDAF7880F9695879597F90895DD
S113070097F99F6780E870E060E008959FEF80ECC0
S1130710089500240A941616170618060906089563
S113072000240A9412161306140605060895092EC9
S11307300394000C11F4882352F0BB0F40F4BF2B38
S113074011F460FF04C06F5F7F4F8F4F9F4F089578
S113075057FD9058440F551F59F05F3F71F047956E
S1130760880F97FB991F61F09F3F79F08795089553
S1130770121613061406551FF2CF4695F1DF08C072
S1130780161617061806991FF1CF8695710561058F
S113079008940895E894BB2766277727CB0197F937
S11307A008950E94430408F48FEF08950E94E9031A
S11307B00C9497030E94890338F00E94900320F060
S11307C0952311F00C9480030C94860311240C944B
S11307D0CB030E94A80370F3959FC1F3950F50E0DB
S11307E0551F629FF001729FBB27F00DB11D639FDF
S11307F0AA27F00DB11DAA1F649F6627B00DA11D85
S1130800661F829F2227B00DA11D621F739FB00D2A
S1130810A11D621F839FA00D611D221F749F33279A
S1130820A00D611D231F849F600D211D822F762F33
S11308306A2F11249F5750409AF0F1F088234AF010
S1130840EE0FFF1FBB1F661F771F881F915050407C
S1130850A9F79E3F510580F00C9480030C94CB03C0
S11308605F3FE4F3983ED4F3869577956795B79503
S1130870F795E7959F5FC1F7FE2B880F911D96951D
S1130880879597F90895990F0008550FAA0BE0E88A
S1130890FEEF16161706E807F907C0F0121613063E
S11308A0E407F50798F0621B730B840B950B39F47E
S11308B00A2661F0232B242B252B21F408950A26E4
S11308C009F4A140A6958FEF811D811D0895EE0FB7
S11108D0FF1F0590F491E02D0994F894FFCFDA
S9030000FC
