:100000000C943E000C9450000C9450000C94500042
:100010000C9450000C9450000C9450000C94500020
:100020000C9450000C9450000C9450000C949A00C6
:100030000C9452000C9450000C9450000C945000FE
:100040000C9450000C9450000C9450000C945000F0
:100050000C9450000C9450000C9450000C945000E0
:100060000C9450000C945000940197019A019D014A
:10007000A001A301A601A901AC01AF0111241FBE7B
:10008000CFEFD8E0DEBFCDBF21E0A0E0B1E001C0FE
:100090001D92A230B207E1F70E94F1010C947304A3
:1000A0000C9400001F920F920FB60F9211248F93A1
:1000B0009F938BB18F3F29F41BB885B1816085B9BF
:1000C00006C08FEF8BB995B181E0892785B9109271
:1000D0008500109284009F918F910F900FBE0F901A
:1000E0001F901895E0910001F0910101808181112C
:1000F0001EC089E08083E0910001F09101018181BF
:10010000811112C085E08183E0910001F09101012D
:100110008281811106C083818150838389E082833B
:10012000089581508283089581508183089581507C
:10013000808308951F920F920FB60F9211242F9370
:100140003F934F935F936F937F938F939F93AF935F
:10015000BF93EF93FF930E947200FF91EF91BF91C5
:10016000AF919F918F917F916F915F914F913F914F
:100170002F910F900FBE0F901F9018950F931F9304
:10018000CF93DF93EC0190930101809300011092D3
:1001900085001092840086B3826086BB8FB780682A
:1001A0008FBF11C0888181110BC08981811108C066
:1001B0008A81811105C08B81811102C0F89405C02C
:1001C000CE010E94B5011C99EDCF888181110BC031
:1001D0008981811108C08A81811105C08B818111BB
:1001E00002C0F89445C01C9B3FC0F8940091840065
:1001F0001091850003C0CE010E94B5011C99FBCF70
:1002000003C0CE010E94B5011C9902C01A9BF9CF10
:100210001A9B0EC0188219821A821B8203C0CE015B
:100220000E94B5011A99FBCF1B99F9CF81E020C03C
:10023000109385000093840086B3826086BB8FB7DD
:1002400080688FBF0FC0CE010E94B50188818111E7
:1002500009C08981811106C08A81811103C08B8107
:10026000882311F01C99EFCFCE010E94B501ADCFCC
:1002700081112BC084E080936F0010928500109252
:10028000840086B3826086BB8FB780688FBF1BB83F
:1002900085B1816085B902C00E946A011C99FCCFBA
:1002A0001C9B08C0F894289B0BC095B181E089275E
:1002B00085B906C00E946A01F3CFCE010E94B50144
:1002C0001C99FBCF82E080936F00DF91CF911F914B
:1002D0000F9108958EE088B98FEC97E00197F1F7C0
:1002E00000C000008DE088B98FEC97E00197F1F72E
:1002F00000C000008BE088B98FEC97E00197F1F720
:1003000000C0000087E088B98FEC97E00197F1F713
:1003100000C00000089590E08A30910518F5FC01B6
:10032000EC5CFF4F0C946D0480EC8BB9089589EF61
:100330008BB9089584EA8BB9089580EB8BB9089541
:1003400089E98BB9089582E98BB9089582E88BB960
:10035000089588ED8BB9089580E88BB9089580E9F8
:100360008BB9089586E08BB908951F93CF93DF93DF
:10037000EC011FEF1BB988810E948B018EE088B9C8
:100380008FEC97E00197F1F700C000001BB989815D
:100390000E948B018DE088B98FEC97E00197F1F70F
:1003A00000C000001BB98A810E948B018BB180586C
:1003B0008BB98BE088B98FEC97E00197F1F700C01B
:1003C00000001BB98B810E948B0187E088B98FECFC
:1003D00097E00197F1F700C00000DF91CF911F91E6
:1003E0000895CF93DF9300D000D0CDB7DEB7198248
:1003F0001A821B821C8281E084B98FE287B98FEF59
:100400008AB9109280008CE08093810082E0809312
:100410006F0081E19AE7909389008093880088E0DB
:100420009DE390938B0080938A00F8941A9B0CC0F4
:1004300001E810E084E0F8018083CE0101960E947B
:100440004E028CE0F80180831B9B04C0CE01019614
:100450000E94BA021C9B04C0CE0101960E94BE00FD
:10046000CE0101960E94B501E1CFFC019281993045
:1004700019F09F5F9283089512828381893019F069
:100480008F5F8383089513820895FC0191819530D5
:1004900019F09F5F9183089511820895CF93DF93A0
:1004A000EC010E94350210928500109284005DC01C
:1004B000CE010E94B501609184007091850080E0BA
:1004C00090E00E94490320E030E040E853E40E94BD
:1004D000DC0320E034E244EF5AE40E94D70220E03B
:1004E00030E040E85FE30E94D70388237CF110925C
:1004F00085001092840026C0609184007091850070
:1005000080E090E00E94490320E030E040E853E4BE
:100510000E94DC0320E034E244EF5AE40E94D70258
:100520002DEC3CEC4CEC5DE30E94D70388233CF0BF
:10053000CE010E9435021092850010928400CE01F7
:100540000E94B5011A9B02C01B9BD6CF1B9B0DC0FE
:10055000188219821A821B8203C0CE010E94B50143
:100560001B99FBCF1A99F9CF02C01A99A1CFDF913D
:10057000CF910895CF93DF93EC010E94450212C002
:10058000CE010E94B5011A9B0DC0188219821A82F1
:100590001B8203C0CE010E94B5011B99FBCF1A99A3
:1005A000F9CF02C01B99ECCFDF91CF9108950E9443
:1005B000EB020C949D030E94960358F00E948F0357
:1005C00040F029F45F3F29F00C94860351110C94FC
:1005D000D1030C948C030E94AE0368F39923B1F30A
:1005E000552391F3951B550BBB27AA276217730759
:1005F000840738F09F5F5F4F220F331F441FAA1FED
:10060000A9F335D00E2E3AF0E0E832D091505040A8
:10061000E695001CCAF72BD0FE2F29D0660F771F56
:10062000881FBB1F261737074807AB07B0E809F03C
:10063000BB0B802DBF01FF2793585F4F3AF09E3FC1
:10064000510578F00C9486030C94D1035F3FE4F3DA
:10065000983ED4F3869577956795B795F7959F5F04
:10066000C9F7880F911D9695879597F90895E1E050
:10067000660F771F881FBB1F621773078407BA07AF
:1006800020F0621B730B840BBA0BEE1F88F7E0950A
:100690000895E89409C097FB3EF490958095709575
:1006A00061957F4F8F4F9F4F9923A9F0F92F96E9BE
:1006B000BB279395F695879577956795B795F11133
:1006C000F8CFFAF4BB0F11F460FF1BC06F5F7F4FD0
:1006D0008F4F9F4F16C0882311F096E911C07723E2
:1006E00021F09EE8872F762F05C0662371F096E8EB
:1006F000862F70E060E02AF09A95660F771F881FBA
:10070000DAF7880F9695879597F9089597F99F6777
:1007100080E870E060E008959FEF80EC0895002489
:100720000A941616170618060906089500240A9456
:1007300012161306140605060895092E0394000CDC
:1007400011F4882352F0BB0F40F4BF2B11F460FF6B
:1007500004C06F5F7F4F8F4F9F4F089557FD905894
:10076000440F551F59F05F3F71F04795880F97FB75
:10077000991F61F09F3F79F087950895121613062F
:100780001406551FF2CF4695F1DF08C0161617065E
:100790001806991FF1CF8695710561050894089593
:1007A000E894BB2766277727CB0197F908950E9425
:1007B000490408F48FEF08950E94EF030C949D0301
:1007C0000E948F0338F00E94960320F0952311F0C9
:1007D0000C9486030C948C0311240C94D1030E9476
:1007E000AE0370F3959FC1F3950F50E0551F629FC4
:1007F000F001729FBB27F00DB11D639FAA27F00D7A
:10080000B11DAA1F649F6627B00DA11D661F829FA0
:100810002227B00DA11D621F739FB00DA11D621F85
:10082000839FA00D611D221F749F3327A00D611DA2
:10083000231F849F600D211D822F762F6A2F112484
:100840009F5750409AF0F1F088234AF0EE0FFF1FB7
:10085000BB1F661F771F881F91505040A9F79E3F0E
:10086000510580F00C9486030C94D1035F3FE4F3B0
:10087000983ED4F3869577956795B795F795E79564
:100880009F5FC1F7FE2B880F911D9695879597F96D
:100890000895990F0008550FAA0BE0E8FEEF161611
:1008A0001706E807F907C0F012161306E407F50764
:1008B00098F0621B730B840B950B39F40A2661F0D8
:1008C000232B242B252B21F408950A2609F4A1407B
:1008D000A6958FEF811D811D0895EE0FFF1F0590D6
:0A08E000F491E02D0994F894FFCF85
:00000001FF
